:100000000C9446000C9465000C9465000C946500FB
:100010000C9465000C9465000C9465000C946500CC
:100020000C9465000C9465000C9465000C946500BC
:100030000C9465000C94A3000C9465000C9465006E
:100040000C9465000C9465000C9465000C9465009C
:100050000C9465000C9465000C9465000C9465008C
:100060000C9465000C9465000C9465000C9465007C
:100070000C9465000C9465000C9465000C9465006C
:100080000C9465000C9465000C94650011241FBE4F
:10009000CFEFD0E4DEBFCDBF11E0A0E0B1E0E0E4FF
:1000A000F3E000E00BBF02C007900D92A231B10750
:1000B000D9F711E0A2E1B1E001C01D92A931B10769
:1000C000E1F70E9484010C949E010C940000CF93F0
:1000D000C82F8A3019F48DE00E9467009091C0000B
:1000E00095FFFCCFC093C60080E090E0CF910895CB
:1000F0008BE0809381008DE790E09093890080935E
:10010000880082E080936F00109285001092840036
:100110008091000190910101A0910201B091030131
:100120008093120190931301A0931401B0931501D1
:100130008FB780688FBF089510928100089581E085
:100140008093160108951F920F920FB60F921124FB
:100150000BB60F922F933F934F935F936F937F93C1
:100160008F939F93AF93BF93EF93FF93809112016F
:1001700090911301A0911401B09115010197A1096B
:10018000B1098093120190931301A0931401B093CD
:100190001501892B8A2B8B2B91F40E949F00809153
:1001A000000190910101A0910201B091030180939F
:1001B000120190931301A0931401B0931501FF91C4
:1001C000EF91BF91AF919F918F917F916F915F91CF
:1001D0004F913F912F910F900BBE0F900FBE0F903C
:1001E0001F901895609300017093010180930201A4
:1001F0009093030160931201709313018093140193
:100200009093150108958091170190911801823003
:10021000910531F128F4009759F0019789F05FC0FA
:1002200084309105E9F160F1059709F449C057C0A0
:1002300018B881E090E090931801809317014FC0A7
:10024000009907C084E090E0909318018093170113
:1002500046C082E090E090931801809317013FC060
:10026000009907C084E090E09093180180931701F3
:1002700036C083E090E090931801809317012FC05F
:10028000009907C084E090E09093180180931701D3
:1002900026C081E090E090931801809317011FC061
:1002A000009907C084E090E09093180180931701B3
:1002B00016C085E090E090931801809317010FC05D
:1002C000009907C081E090E0909318018093170196
:1002D00006C085E090E0909318018093170180910B
:1002E0001701909118018230910541F083309105FA
:1002F00041F0019741F481E088B9089582E088B91E
:10030000089584E088B9089511B88FEF82B987B94C
:1003100018B86CE271E080E090E00E94F2000E9468
:10032000780010921801109217010E940301809129
:1003300016018823E1F310921601F7CFF894FFCF4E
:100340000100000000000002000000006700000043
:020350000000AB
:00000001FF
